{
  "contractName": "Verify",
  "abi": [
    {
      "constant": false,
      "inputs": [
        {
          "name": "instowner",
          "type": "address"
        },
        {
          "name": "fileHash",
          "type": "bytes32"
        }
      ],
      "name": "insertHashPerson",
      "outputs": [],
      "payable": false,
      "stateMutability": "nonpayable",
      "type": "function"
    },
    {
      "constant": false,
      "inputs": [
        {
          "name": "fileHash",
          "type": "bytes32"
        },
        {
          "name": "transactionDetail",
          "type": "string"
        },
        {
          "name": "ipfsUploadedHash",
          "type": "string"
        }
      ],
      "name": "insertTransactionDetails",
      "outputs": [],
      "payable": false,
      "stateMutability": "nonpayable",
      "type": "function"
    },
    {
      "constant": true,
      "inputs": [
        {
          "name": "fileHash",
          "type": "bytes32"
        }
      ],
      "name": "getTransactionDetail",
      "outputs": [
        {
          "name": "",
          "type": "string"
        }
      ],
      "payable": false,
      "stateMutability": "view",
      "type": "function"
    },
    {
      "constant": true,
      "inputs": [
        {
          "name": "fileHash",
          "type": "bytes32"
        }
      ],
      "name": "getIpfsHash",
      "outputs": [
        {
          "name": "",
          "type": "string"
        }
      ],
      "payable": false,
      "stateMutability": "view",
      "type": "function"
    },
    {
      "constant": true,
      "inputs": [],
      "name": "getTotalHashes",
      "outputs": [
        {
          "name": "",
          "type": "bytes32[]"
        }
      ],
      "payable": false,
      "stateMutability": "view",
      "type": "function"
    },
    {
      "constant": true,
      "inputs": [
        {
          "name": "user",
          "type": "address"
        }
      ],
      "name": "getFileHashesUser",
      "outputs": [
        {
          "name": "",
          "type": "bytes32[]"
        }
      ],
      "payable": false,
      "stateMutability": "view",
      "type": "function"
    }
  ],
  "bytecode": "0x608060405234801561001057600080fd5b5061095a806100206000396000f300608060405260043610610078576000357c0100000000000000000000000000000000000000000000000000000000900463ffffffff16806307d60ba81461007d57806366f22c62146100ce5780639c18b0b01461018b578063a4458dc414610223578063d1dce5d81461028f578063eb1fbf1514610339575b600080fd5b34801561008957600080fd5b506100cc600480360381019080803573ffffffffffffffffffffffffffffffffffffffff16906020019092919080356000191690602001909291905050506103e3565b005b3480156100da57600080fd5b506101896004803603810190808035600019169060200190929190803590602001908201803590602001908080601f0160208091040260200160405190810160405280939291908181526020018383808284378201915050505050509192919290803590602001908201803590602001908080601f016020809104026020016040519081016040528093929190818152602001838380828437820191505050505050919291929050505061057d565b005b34801561019757600080fd5b506101cc600480360381019080803573ffffffffffffffffffffffffffffffffffffffff16906020019092919050505061060f565b6040518080602001828103825283818151815260200191508051906020019060200280838360005b8381101561020f5780820151818401526020810190506101f4565b505050509050019250505060405180910390f35b34801561022f57600080fd5b506102386106ad565b6040518080602001828103825283818151815260200191508051906020019060200280838360005b8381101561027b578082015181840152602081019050610260565b505050509050019250505060405180910390f35b34801561029b57600080fd5b506102be6004803603810190808035600019169060200190929190505050610709565b6040518080602001828103825283818151815260200191508051906020019080838360005b838110156102fe5780820151818401526020810190506102e3565b50505050905090810190601f16801561032b5780820380516001836020036101000a031916815260200191505b509250505060405180910390f35b34801561034557600080fd5b5061036860048036038101908080356000191690602001909291905050506107c9565b6040518080602001828103825283818151815260200191508051906020019080838360005b838110156103a857808201518184015260208101905061038d565b50505050905090810190601f1680156103d55780820380516001836020036101000a031916815260200191505b509250505060405180910390f35b806000151560026000836000191660001916815260200190815260200160002060009054906101000a900460ff16151514151561041f57600080fd5b82600160008573ffffffffffffffffffffffffffffffffffffffff1673ffffffffffffffffffffffffffffffffffffffff16815260200190815260200160002060000160006101000a81548173ffffffffffffffffffffffffffffffffffffffff021916908373ffffffffffffffffffffffffffffffffffffffff160217905550600160008473ffffffffffffffffffffffffffffffffffffffff1673ffffffffffffffffffffffffffffffffffffffff1681526020019081526020016000206001018290806001815401808255809150509060018203906000526020600020016000909192909190915090600019169055506000829080600181540180825580915050906001820390600052602060002001600090919290919091509060001916905550600160026000846000191660001916815260200190815260200160002060006101000a81548160ff021916908315150217905550505050565b8260036000856000191660001916815260200190815260200160002060000181600019169055508160036000856000191660001916815260200190815260200160002060010190805190602001906105d6929190610889565b50806003600085600019166000191681526020019081526020016000206002019080519060200190610609929190610889565b50505050565b6060600160008373ffffffffffffffffffffffffffffffffffffffff1673ffffffffffffffffffffffffffffffffffffffff1681526020019081526020016000206001018054806020026020016040519081016040528092919081815260200182805480156106a157602002820191906000526020600020905b81546000191681526020019060010190808311610689575b50505050509050919050565b606060008054806020026020016040519081016040528092919081815260200182805480156106ff57602002820191906000526020600020905b815460001916815260200190600101908083116106e7575b5050505050905090565b60606003600083600019166000191681526020019081526020016000206001018054600181600116156101000203166002900480601f0160208091040260200160405190810160405280929190818152602001828054600181600116156101000203166002900480156107bd5780601f10610792576101008083540402835291602001916107bd565b820191906000526020600020905b8154815290600101906020018083116107a057829003601f168201915b50505050509050919050565b60606003600083600019166000191681526020019081526020016000206002018054600181600116156101000203166002900480601f01602080910402602001604051908101604052809291908181526020018280546001816001161561010002031660029004801561087d5780601f106108525761010080835404028352916020019161087d565b820191906000526020600020905b81548152906001019060200180831161086057829003601f168201915b50505050509050919050565b828054600181600116156101000203166002900490600052602060002090601f016020900481019282601f106108ca57805160ff19168380011785556108f8565b828001600101855582156108f8579182015b828111156108f75782518255916020019190600101906108dc565b5b5090506109059190610909565b5090565b61092b91905b8082111561092757600081600090555060010161090f565b5090565b905600a165627a7a72305820d711b2faa94322ae12462c436b29fd1b69466839c7d17ab08af5c17522d962410029",
  "source": "pragma solidity ^0.4.18;\n\ncontract Verify {\n\n  //this is where all the document hashes get saved as inside an array    \n  bytes32[] totalHashes;\n\n  //created to store hashes corresponding to a unique particular user\n  struct userStruct {\n    address userAddress;\n    bytes32[] hash;\n  }\n  \n  //created to store deatils corresponding to a file Hash\n  struct fileHash {\n    bytes32 createdFileHash;\n    string blockchainHash;\n    string ipfsHash;\n  }\n  \n  //structs will be stored corresponding to the communicating user address\n  mapping(address => userStruct) private userstructs;\n  \n  //mapping to ensure that file condition is set to true once uploaded\n  mapping(bytes32 => bool) private condition;\n  \n  //mapping to store the transaction hash, ipfsHash inside blockchan \n  mapping(bytes32 => fileHash) private fileHashDetails;\n  \n  \n  //check condition to ensure that same hash cannot be saved again on the blockchain\n  modifier notPresent(bytes32 inputHash) {\n      require(condition[inputHash]==false);\n      _;\n  }\n\n\n   //main function to insert the file hash \n   function insertHashPerson (address instowner,bytes32 fileHash) notPresent(fileHash)  public  {\n\n       userstructs[instowner].userAddress = instowner;\n       userstructs[instowner].hash.push(fileHash);\n       totalHashes.push(fileHash);\n       condition[fileHash] = true;\n  }\n  \n  //to store transaction hash\n  function insertTransactionDetails(bytes32 fileHash, string transactionDetail,string ipfsUploadedHash) public {\n      fileHashDetails[fileHash].createdFileHash=fileHash;\n      fileHashDetails[fileHash].blockchainHash = transactionDetail;\n      fileHashDetails[fileHash].ipfsHash = ipfsUploadedHash;\n  }\n  \n  //to get transaction hash corresponding to the file hash\n  function getTransactionDetail(bytes32 fileHash) constant public returns (string) {\n      return fileHashDetails[fileHash].blockchainHash;\n  }\n\n\n function getIpfsHash(bytes32 fileHash) constant public returns (string) {\n     return fileHashDetails[fileHash].ipfsHash;\n }\n\n  //to get all the file hashes uploaded in the blockchain\n  function getTotalHashes ()  constant  public  returns(bytes32[])   {\n    return(totalHashes);\n  }\n\n   //getting all file hashes corresponding to a particular user\n   function getFileHashesUser(address user) constant public returns(bytes32[]) {\n      return userstructs[user].hash;\n  }\n \n}\n",
  "sourcePath": "/home/nousahd/POE-Validation/contracts/Verify.sol",
  "compiler": {
    "name": "solc",
    "version": "0.4.24+commit.e67f0147.Emscripten.clang"
  },
  "schemaVersion": "2.0.1",
  "updatedAt": "2018-09-02T08:25:37.270Z"
}