{
  "contractName": "Verify",
  "abi": [
    {
      "constant": false,
      "inputs": [
        {
          "name": "instowner",
          "type": "address"
        },
        {
          "name": "fileHash",
          "type": "bytes32"
        }
      ],
      "name": "insertHashPerson",
      "outputs": [],
      "payable": false,
      "stateMutability": "nonpayable",
      "type": "function"
    },
    {
      "constant": false,
      "inputs": [
        {
          "name": "fileHash",
          "type": "bytes32"
        },
        {
          "name": "transactionDetail",
          "type": "string"
        }
      ],
      "name": "insertTransactionDetails",
      "outputs": [],
      "payable": false,
      "stateMutability": "nonpayable",
      "type": "function"
    },
    {
      "constant": true,
      "inputs": [
        {
          "name": "fileHash",
          "type": "bytes32"
        }
      ],
      "name": "getTransactionDetail",
      "outputs": [
        {
          "name": "",
          "type": "string"
        }
      ],
      "payable": false,
      "stateMutability": "view",
      "type": "function"
    },
    {
      "constant": true,
      "inputs": [],
      "name": "getTotalHashes",
      "outputs": [
        {
          "name": "",
          "type": "bytes32[]"
        }
      ],
      "payable": false,
      "stateMutability": "view",
      "type": "function"
    },
    {
      "constant": true,
      "inputs": [
        {
          "name": "user",
          "type": "address"
        }
      ],
      "name": "getFileHashesUser",
      "outputs": [
        {
          "name": "",
          "type": "bytes32[]"
        }
      ],
      "payable": false,
      "stateMutability": "view",
      "type": "function"
    }
  ],
  "bytecode": "0x608060405234801561001057600080fd5b5061073d806100206000396000f30060806040526004361061006d576000357c0100000000000000000000000000000000000000000000000000000000900463ffffffff16806307d60ba8146100725780639c18b0b0146100c35780639f028c3e1461015b578063a4458dc4146101d2578063d1dce5d81461023e575b600080fd5b34801561007e57600080fd5b506100c1600480360381019080803573ffffffffffffffffffffffffffffffffffffffff16906020019092919080356000191690602001909291905050506102e8565b005b3480156100cf57600080fd5b50610104600480360381019080803573ffffffffffffffffffffffffffffffffffffffff169060200190929190505050610481565b6040518080602001828103825283818151815260200191508051906020019060200280838360005b8381101561014757808201518184015260208101905061012c565b505050509050019250505060405180910390f35b34801561016757600080fd5b506101d06004803603810190808035600019169060200190929190803590602001908201803590602001908080601f016020809104026020016040519081016040528093929190818152602001838380828437820191505050505050919291929050505061051f565b005b3480156101de57600080fd5b506101e7610553565b6040518080602001828103825283818151815260200191508051906020019060200280838360005b8381101561022a57808201518184015260208101905061020f565b505050509050019250505060405180910390f35b34801561024a57600080fd5b5061026d60048036038101908080356000191690602001909291905050506105af565b6040518080602001828103825283818151815260200191508051906020019080838360005b838110156102ad578082015181840152602081019050610292565b50505050905090810190601f1680156102da5780820380516001836020036101000a031916815260200191505b509250505060405180910390f35b806000151560016000836000191660001916815260200190815260200160002060009054906101000a900460ff16151514151561032457600080fd5b82600360008573ffffffffffffffffffffffffffffffffffffffff1673ffffffffffffffffffffffffffffffffffffffff16815260200190815260200160002060000160006101000a81548173ffffffffffffffffffffffffffffffffffffffff021916908373ffffffffffffffffffffffffffffffffffffffff160217905550600360008473ffffffffffffffffffffffffffffffffffffffff1673ffffffffffffffffffffffffffffffffffffffff16815260200190815260200160002060010182908060018154018082558091505090600182039060005260206000200160009091929091909150906000191690555060008290806001815401808255809150509060018203906000526020600020016000909192909190915090600019169055506001806000846000191660001916815260200190815260200160002060006101000a81548160ff021916908315150217905550505050565b6060600360008373ffffffffffffffffffffffffffffffffffffffff1673ffffffffffffffffffffffffffffffffffffffff16815260200190815260200160002060010180548060200260200160405190810160405280929190818152602001828054801561051357602002820191906000526020600020905b815460001916815260200190600101908083116104fb575b50505050509050919050565b80600260008460001916600019168152602001908152602001600020908051906020019061054e92919061066c565b505050565b606060008054806020026020016040519081016040528092919081815260200182805480156105a557602002820191906000526020600020905b8154600019168152602001906001019080831161058d575b5050505050905090565b60606002600083600019166000191681526020019081526020016000208054600181600116156101000203166002900480601f0160208091040260200160405190810160405280929190818152602001828054600181600116156101000203166002900480156106605780601f1061063557610100808354040283529160200191610660565b820191906000526020600020905b81548152906001019060200180831161064357829003601f168201915b50505050509050919050565b828054600181600116156101000203166002900490600052602060002090601f016020900481019282601f106106ad57805160ff19168380011785556106db565b828001600101855582156106db579182015b828111156106da5782518255916020019190600101906106bf565b5b5090506106e891906106ec565b5090565b61070e91905b8082111561070a5760008160009055506001016106f2565b5090565b905600a165627a7a72305820b35d30abf926a7aaed2ffee3388a074a5182dd195f768cf3c6d004a41759c3510029",
  "source": "pragma solidity ^0.4.18;\n\ncontract Verify {\n    \n  bytes32[] totalHashes;\n\n  struct userStruct {\n    address userAddress;\n    bytes32[] hash;\n    bool present;\n  }\n\n  mapping(bytes32 => bool) private condition;\n  mapping(bytes32 => string) private details;\n  mapping(address => userStruct) private userstructs;\n  \n  modifier notPresent(bytes32 inputHash) {\n      require(condition[inputHash]==false);\n      _;\n  }\n\n   function insertHashPerson (address instowner,bytes32 fileHash) notPresent(fileHash)  public  {\n\n       userstructs[instowner].userAddress = instowner;\n       userstructs[instowner].hash.push(fileHash);\n       totalHashes.push(fileHash);\n       condition[fileHash] = true;\n  }\n  \n  function insertTransactionDetails(bytes32 fileHash, string transactionDetail) public {\n      details[fileHash]=transactionDetail;\n  }\n  \n  function getTransactionDetail(bytes32 fileHash) constant public returns (string) {\n      return details[fileHash];\n  }\n\n  function getTotalHashes ()  constant  public  returns(bytes32[])   {\n    return(totalHashes);\n  }\n\n   function getFileHashesUser(address user) constant public returns(bytes32[]) {\n      return userstructs[user].hash;\n  }\n \n}\n",
  "sourcePath": "/home/nousahd/hashupload/contracts/Verify.sol",
  "compiler": {
    "name": "solc",
    "version": "0.4.24+commit.e67f0147.Emscripten.clang"
  },
  "schemaVersion": "2.0.1",
  "updatedAt": "2018-08-23T04:59:56.428Z"
}